{
  "contractName": "ERC721Connector",
  "abi": [
    {
      "inputs": [
        {
          "internalType": "string",
          "name": "name",
          "type": "string"
        },
        {
          "internalType": "string",
          "name": "symbol",
          "type": "string"
        }
      ],
      "stateMutability": "nonpayable",
      "type": "constructor"
    },
    {
      "anonymous": false,
      "inputs": [
        {
          "indexed": true,
          "internalType": "address",
          "name": "_owner",
          "type": "address"
        },
        {
          "indexed": true,
          "internalType": "address",
          "name": "_approved",
          "type": "address"
        },
        {
          "indexed": true,
          "internalType": "uint256",
          "name": "_tokenId",
          "type": "uint256"
        }
      ],
      "name": "Approval",
      "type": "event"
    },
    {
      "anonymous": false,
      "inputs": [
        {
          "indexed": true,
          "internalType": "address",
          "name": "_from",
          "type": "address"
        },
        {
          "indexed": true,
          "internalType": "address",
          "name": "_to",
          "type": "address"
        },
        {
          "indexed": true,
          "internalType": "uint256",
          "name": "_tokenId",
          "type": "uint256"
        }
      ],
      "name": "Transfer",
      "type": "event"
    },
    {
      "inputs": [
        {
          "internalType": "address",
          "name": "_owner",
          "type": "address"
        }
      ],
      "name": "balanceOf",
      "outputs": [
        {
          "internalType": "uint256",
          "name": "",
          "type": "uint256"
        }
      ],
      "stateMutability": "view",
      "type": "function"
    },
    {
      "inputs": [],
      "name": "name",
      "outputs": [
        {
          "internalType": "string",
          "name": "",
          "type": "string"
        }
      ],
      "stateMutability": "view",
      "type": "function"
    },
    {
      "inputs": [
        {
          "internalType": "uint256",
          "name": "_tokenId",
          "type": "uint256"
        }
      ],
      "name": "ownerOf",
      "outputs": [
        {
          "internalType": "address",
          "name": "",
          "type": "address"
        }
      ],
      "stateMutability": "view",
      "type": "function"
    },
    {
      "inputs": [
        {
          "internalType": "bytes4",
          "name": "interfaceID",
          "type": "bytes4"
        }
      ],
      "name": "supportsInterface",
      "outputs": [
        {
          "internalType": "bool",
          "name": "",
          "type": "bool"
        }
      ],
      "stateMutability": "view",
      "type": "function"
    },
    {
      "inputs": [],
      "name": "symbol",
      "outputs": [
        {
          "internalType": "string",
          "name": "",
          "type": "string"
        }
      ],
      "stateMutability": "view",
      "type": "function"
    },
    {
      "inputs": [
        {
          "internalType": "uint256",
          "name": "index",
          "type": "uint256"
        }
      ],
      "name": "tokenByIndex",
      "outputs": [
        {
          "internalType": "uint256",
          "name": "",
          "type": "uint256"
        }
      ],
      "stateMutability": "view",
      "type": "function"
    },
    {
      "inputs": [
        {
          "internalType": "address",
          "name": "owner",
          "type": "address"
        },
        {
          "internalType": "uint256",
          "name": "index",
          "type": "uint256"
        }
      ],
      "name": "tokenOfOwnerByIndex",
      "outputs": [
        {
          "internalType": "uint256",
          "name": "",
          "type": "uint256"
        }
      ],
      "stateMutability": "view",
      "type": "function"
    },
    {
      "inputs": [],
      "name": "totalSupply",
      "outputs": [
        {
          "internalType": "uint256",
          "name": "",
          "type": "uint256"
        }
      ],
      "stateMutability": "view",
      "type": "function"
    },
    {
      "inputs": [
        {
          "internalType": "address",
          "name": "_from",
          "type": "address"
        },
        {
          "internalType": "address",
          "name": "_to",
          "type": "address"
        },
        {
          "internalType": "uint256",
          "name": "_tokenId",
          "type": "uint256"
        }
      ],
      "name": "transferFrom",
      "outputs": [],
      "stateMutability": "nonpayable",
      "type": "function"
    }
  ],
  "bytecode": "0x60806040523480156200001157600080fd5b50604051620016da380380620016da8339818101604052810190620000379190620003dd565b81816200006a7f01ffc9a7a5cef8baa21ed3c5c0d7e23accb804b619e9333b597f47a0d84076e2620001e360201b60201c565b620000bd7f13b182f4c0e5b2efbac0efe6cf6d756c8b89f4b79c5707a043ed9ea740574ee97f7feaf19471f34a12a7eaf32d5f3090aa2260ea8624dc8a138e74e0bf0f62307618620001e360201b60201c565b8160019080519060200190620000d5929190620002bb565b508060029080519060200190620000ee929190620002bb565b505050620001667f22c82707ba960a14c7592ffb6b8cfaa073fed0048a84cc7fa41f6b5bd8e7f2e47f3a6eb71757dfc6e784c1459d26270140c2c147d95ca985c80026fc5301c3eca17f8a7e378434598edc36d108689a030cbc9d7d465de4f74c71bae1028eed6a881b1818620001e360201b60201c565b620001db7f8230223f691b981717299fae9549350a0d894555723531f02108b1f522c1a7977f6da5e1284143cdd2d15038a59bde3be031250f00291d64494c12d967b3a4e0c37fc53637662700e6c65104059db8bba34439e0c32483ab7c34e3ccae52c73954951818620001e360201b60201c565b505062000643565b63ffffffff60e01b817bffffffffffffffffffffffffffffffffffffffffffffffffffffffff191614156200024f576040517f08c379a0000000000000000000000000000000000000000000000000000000008152600401620002469062000477565b60405180910390fd5b6001600080837bffffffffffffffffffffffffffffffffffffffffffffffffffffffff19167bffffffffffffffffffffffffffffffffffffffffffffffffffffffff1916815260200190815260200160002060006101000a81548160ff02191690831515021790555050565b828054620002c9906200053f565b90600052602060002090601f016020900481019282620002ed576000855562000339565b82601f106200030857805160ff191683800117855562000339565b8280016001018555821562000339579182015b82811115620003385782518255916020019190600101906200031b565b5b5090506200034891906200034c565b5090565b5b80821115620003675760008160009055506001016200034d565b5090565b6000620003826200037c84620004c2565b62000499565b9050828152602081018484840111156200039b57600080fd5b620003a884828562000509565b509392505050565b600082601f830112620003c257600080fd5b8151620003d48482602086016200036b565b91505092915050565b60008060408385031215620003f157600080fd5b600083015167ffffffffffffffff8111156200040c57600080fd5b6200041a85828601620003b0565b925050602083015167ffffffffffffffff8111156200043857600080fd5b6200044685828601620003b0565b9150509250929050565b60006200045f601983620004f8565b91506200046c826200061a565b602082019050919050565b60006020820190508181036000830152620004928162000450565b9050919050565b6000620004a5620004b8565b9050620004b3828262000575565b919050565b6000604051905090565b600067ffffffffffffffff821115620004e057620004df620005da565b5b620004eb8262000609565b9050602081019050919050565b600082825260208201905092915050565b60005b83811015620005295780820151818401526020810190506200050c565b8381111562000539576000848401525b50505050565b600060028204905060018216806200055857607f821691505b602082108114156200056f576200056e620005ab565b5b50919050565b620005808262000609565b810181811067ffffffffffffffff82111715620005a257620005a1620005da565b5b80604052505050565b7f4e487b7100000000000000000000000000000000000000000000000000000000600052602260045260246000fd5b7f4e487b7100000000000000000000000000000000000000000000000000000000600052604160045260246000fd5b6000601f19601f8301169050919050565b7f496e76616c696420696e74657266616365207265717565737400000000000000600082015250565b61108780620006536000396000f3fe608060405234801561001057600080fd5b50600436106100935760003560e01c80632f745c59116100665780632f745c59146101205780634f6ccce7146101505780636352211e1461018057806370a08231146101b057806395d89b41146101e057610093565b806301ffc9a71461009857806306fdde03146100c857806318160ddd146100e657806323b872dd14610104575b600080fd5b6100b260048036038101906100ad9190610a8b565b6101fe565b6040516100bf9190610c0d565b60405180910390f35b6100d0610265565b6040516100dd9190610c28565b60405180910390f35b6100ee6102f7565b6040516100fb9190610cea565b60405180910390f35b61011e60048036038101906101199190610a00565b610304565b005b61013a60048036038101906101359190610a4f565b610327565b6040516101479190610cea565b60405180910390f35b61016a60048036038101906101659190610ab4565b6103fd565b6040516101779190610cea565b60405180910390f35b61019a60048036038101906101959190610ab4565b610494565b6040516101a79190610bf2565b60405180910390f35b6101ca60048036038101906101c591906109d7565b61053d565b6040516101d79190610cea565b60405180910390f35b6101e86105bf565b6040516101f59190610c28565b60405180910390f35b6000806000837bffffffffffffffffffffffffffffffffffffffffffffffffffffffff19167bffffffffffffffffffffffffffffffffffffffffffffffffffffffff1916815260200190815260200160002060009054906101000a900460ff169050919050565b60606001805461027490610e52565b80601f01602080910402602001604051908101604052809291908181526020018280546102a090610e52565b80156102ed5780601f106102c2576101008083540402835291602001916102ed565b820191906000526020600020905b8154815290600101906020018083116102d057829003601f168201915b5050505050905090565b6000600580549050905090565b61030e3382610651565b61031757600080fd5b6103228383836106e0565b505050565b60006103328361053d565b8210610373576040517f08c379a000000000000000000000000000000000000000000000000000000000815260040161036a90610c8a565b60405180910390fd5b600760008473ffffffffffffffffffffffffffffffffffffffff1673ffffffffffffffffffffffffffffffffffffffff16815260200190815260200160002082815481106103ea577f4e487b7100000000000000000000000000000000000000000000000000000000600052603260045260246000fd5b9060005260206000200154905092915050565b60006104076102f7565b8210610448576040517f08c379a000000000000000000000000000000000000000000000000000000000815260040161043f90610c6a565b60405180910390fd5b60058281548110610482577f4e487b7100000000000000000000000000000000000000000000000000000000600052603260045260246000fd5b90600052602060002001549050919050565b60008073ffffffffffffffffffffffffffffffffffffffff166003600084815260200190815260200160002060009054906101000a900473ffffffffffffffffffffffffffffffffffffffff1673ffffffffffffffffffffffffffffffffffffffff16141561050257600080fd5b6003600083815260200190815260200160002060009054906101000a900473ffffffffffffffffffffffffffffffffffffffff169050919050565b60008073ffffffffffffffffffffffffffffffffffffffff168273ffffffffffffffffffffffffffffffffffffffff16141561057857600080fd5b600460008373ffffffffffffffffffffffffffffffffffffffff1673ffffffffffffffffffffffffffffffffffffffff168152602001908152602001600020549050919050565b6060600280546105ce90610e52565b80601f01602080910402602001604051908101604052809291908181526020018280546105fa90610e52565b80156106475780601f1061061c57610100808354040283529160200191610647565b820191906000526020600020905b81548152906001019060200180831161062a57829003601f168201915b5050505050905090565b600061065c82610926565b61069b576040517f08c379a000000000000000000000000000000000000000000000000000000000815260040161069290610cca565b60405180910390fd5b60006106a683610494565b90508073ffffffffffffffffffffffffffffffffffffffff168473ffffffffffffffffffffffffffffffffffffffff161491505092915050565b600073ffffffffffffffffffffffffffffffffffffffff168273ffffffffffffffffffffffffffffffffffffffff161415610750576040517f08c379a000000000000000000000000000000000000000000000000000000000815260040161074790610c4a565b60405180910390fd5b8273ffffffffffffffffffffffffffffffffffffffff1661077082610494565b73ffffffffffffffffffffffffffffffffffffffff16146107c6576040517f08c379a00000000000000000000000000000000000000000000000000000000081526004016107bd90610caa565b60405180910390fd5b6001600460008573ffffffffffffffffffffffffffffffffffffffff1673ffffffffffffffffffffffffffffffffffffffff16815260200190815260200160002060008282546108169190610d77565b925050819055506001600460008473ffffffffffffffffffffffffffffffffffffffff1673ffffffffffffffffffffffffffffffffffffffff168152602001908152602001600020600082825461086d9190610d21565b92505081905550816003600083815260200190815260200160002060006101000a81548173ffffffffffffffffffffffffffffffffffffffff021916908373ffffffffffffffffffffffffffffffffffffffff160217905550808273ffffffffffffffffffffffffffffffffffffffff168473ffffffffffffffffffffffffffffffffffffffff167fddf252ad1be2c89b69c2b068fc378daa952ba7f163c4a11628f55a4df523b3ef60405160405180910390a4505050565b6000806003600084815260200190815260200160002060009054906101000a900473ffffffffffffffffffffffffffffffffffffffff169050600073ffffffffffffffffffffffffffffffffffffffff168173ffffffffffffffffffffffffffffffffffffffff161415915050919050565b6000813590506109a78161100c565b92915050565b6000813590506109bc81611023565b92915050565b6000813590506109d18161103a565b92915050565b6000602082840312156109e957600080fd5b60006109f784828501610998565b91505092915050565b600080600060608486031215610a1557600080fd5b6000610a2386828701610998565b9350506020610a3486828701610998565b9250506040610a45868287016109c2565b9150509250925092565b60008060408385031215610a6257600080fd5b6000610a7085828601610998565b9250506020610a81858286016109c2565b9150509250929050565b600060208284031215610a9d57600080fd5b6000610aab848285016109ad565b91505092915050565b600060208284031215610ac657600080fd5b6000610ad4848285016109c2565b91505092915050565b610ae681610dab565b82525050565b610af581610dbd565b82525050565b6000610b0682610d05565b610b108185610d10565b9350610b20818560208601610e1f565b610b2981610ee2565b840191505092915050565b6000610b41602b83610d10565b9150610b4c82610ef3565b604082019050919050565b6000610b64601983610d10565b9150610b6f82610f42565b602082019050919050565b6000610b87601883610d10565b9150610b9282610f6b565b602082019050919050565b6000610baa603483610d10565b9150610bb582610f94565b604082019050919050565b6000610bcd601483610d10565b9150610bd882610fe3565b602082019050919050565b610bec81610e15565b82525050565b6000602082019050610c076000830184610add565b92915050565b6000602082019050610c226000830184610aec565b92915050565b60006020820190508181036000830152610c428184610afb565b905092915050565b60006020820190508181036000830152610c6381610b34565b9050919050565b60006020820190508181036000830152610c8381610b57565b9050919050565b60006020820190508181036000830152610ca381610b7a565b9050919050565b60006020820190508181036000830152610cc381610b9d565b9050919050565b60006020820190508181036000830152610ce381610bc0565b9050919050565b6000602082019050610cff6000830184610be3565b92915050565b600081519050919050565b600082825260208201905092915050565b6000610d2c82610e15565b9150610d3783610e15565b9250827fffffffffffffffffffffffffffffffffffffffffffffffffffffffffffffffff03821115610d6c57610d6b610e84565b5b828201905092915050565b6000610d8282610e15565b9150610d8d83610e15565b925082821015610da057610d9f610e84565b5b828203905092915050565b6000610db682610df5565b9050919050565b60008115159050919050565b60007fffffffff0000000000000000000000000000000000000000000000000000000082169050919050565b600073ffffffffffffffffffffffffffffffffffffffff82169050919050565b6000819050919050565b60005b83811015610e3d578082015181840152602081019050610e22565b83811115610e4c576000848401525b50505050565b60006002820490506001821680610e6a57607f821691505b60208210811415610e7e57610e7d610eb3565b5b50919050565b7f4e487b7100000000000000000000000000000000000000000000000000000000600052601160045260246000fd5b7f4e487b7100000000000000000000000000000000000000000000000000000000600052602260045260246000fd5b6000601f19601f8301169050919050565b7f4572726f72202d20455243373231205472616e7366657220746f20746865207a60008201527f65726f2061646472657373000000000000000000000000000000000000000000602082015250565b7f474c4f42414c20494e444558204f5554204f4620424f554e4400000000000000600082015250565b7f4f574e455220494e444558204f5554204f4620424f554e440000000000000000600082015250565b7f547279696e6720746f207472616e73666572206120746f6b656e20746865206160008201527f64647265737320646f6573206e6f74206f776e21000000000000000000000000602082015250565b7f746f6b656e20646f6573206e6f74206578697374000000000000000000000000600082015250565b61101581610dab565b811461102057600080fd5b50565b61102c81610dc9565b811461103757600080fd5b50565b61104381610e15565b811461104e57600080fd5b5056fea26469706673582212209fae14de91e29778bfc94048252cbb845d168ce494541a9b2b63380438ad864964736f6c63430008040033",
  "immutableReferences": {},
  "source": "// SPDX-License-Identifier: MIT\r\npragma solidity ^0.8.0;\r\n\r\nimport './ERC721Metadata.sol';\r\nimport './ERC721Enumerable.sol';\r\n\r\ncontract ERC721Connector is ERC721Metadata , ERC721Enumerable {\r\n\r\n    constructor(string memory name,string memory symbol) ERC721Metadata(name,symbol){\r\n        \r\n    }\r\n}",
  "sourcePath": "C:/Users/ACER/Desktop/Projects/Blockchain_Projects/Kryptokitties/KryptoBirdz/src/contracts/ERC721Connector.sol",
  "compiler": {
    "name": "solc",
    "version": "0.8.4+commit.c7e474f2.Emscripten.clang"
  },
  "schemaVersion": "3.4.1",
  "updatedAt": "2022-01-15T15:59:52.236Z",
  "devdoc": {
    "kind": "dev",
    "methods": {
      "supportsInterface(bytes4)": {
        "details": "Interface identification is specified in ERC-165. This function  uses less than 30,000 gas.",
        "params": {
          "interfaceID": "The interface identifier, as specified in ERC-165"
        },
        "returns": {
          "_0": "`true` if the contract implements `interfaceID` and  `interfaceID` is not 0xffffffff, `false` otherwise"
        }
      }
    },
    "version": 1
  },
  "userdoc": {
    "kind": "user",
    "methods": {
      "supportsInterface(bytes4)": {
        "notice": "Query if a contract implements an interface"
      }
    },
    "version": 1
  }
}