{
  "contractName": "ERC721Enumerable",
  "abi": [
    {
      "inputs": [],
      "stateMutability": "nonpayable",
      "type": "constructor"
    },
    {
      "anonymous": false,
      "inputs": [
        {
          "indexed": true,
          "internalType": "address",
          "name": "_owner",
          "type": "address"
        },
        {
          "indexed": true,
          "internalType": "address",
          "name": "_approved",
          "type": "address"
        },
        {
          "indexed": true,
          "internalType": "uint256",
          "name": "_tokenId",
          "type": "uint256"
        }
      ],
      "name": "Approval",
      "type": "event"
    },
    {
      "anonymous": false,
      "inputs": [
        {
          "indexed": true,
          "internalType": "address",
          "name": "_from",
          "type": "address"
        },
        {
          "indexed": true,
          "internalType": "address",
          "name": "_to",
          "type": "address"
        },
        {
          "indexed": true,
          "internalType": "uint256",
          "name": "_tokenId",
          "type": "uint256"
        }
      ],
      "name": "Transfer",
      "type": "event"
    },
    {
      "inputs": [
        {
          "internalType": "address",
          "name": "_owner",
          "type": "address"
        }
      ],
      "name": "balanceOf",
      "outputs": [
        {
          "internalType": "uint256",
          "name": "",
          "type": "uint256"
        }
      ],
      "stateMutability": "view",
      "type": "function"
    },
    {
      "inputs": [
        {
          "internalType": "uint256",
          "name": "_tokenId",
          "type": "uint256"
        }
      ],
      "name": "ownerOf",
      "outputs": [
        {
          "internalType": "address",
          "name": "",
          "type": "address"
        }
      ],
      "stateMutability": "view",
      "type": "function"
    },
    {
      "inputs": [
        {
          "internalType": "bytes4",
          "name": "interfaceID",
          "type": "bytes4"
        }
      ],
      "name": "supportsInterface",
      "outputs": [
        {
          "internalType": "bool",
          "name": "",
          "type": "bool"
        }
      ],
      "stateMutability": "view",
      "type": "function"
    },
    {
      "inputs": [
        {
          "internalType": "address",
          "name": "_from",
          "type": "address"
        },
        {
          "internalType": "address",
          "name": "_to",
          "type": "address"
        },
        {
          "internalType": "uint256",
          "name": "_tokenId",
          "type": "uint256"
        }
      ],
      "name": "transferFrom",
      "outputs": [],
      "stateMutability": "nonpayable",
      "type": "function"
    },
    {
      "inputs": [
        {
          "internalType": "uint256",
          "name": "index",
          "type": "uint256"
        }
      ],
      "name": "tokenByIndex",
      "outputs": [
        {
          "internalType": "uint256",
          "name": "",
          "type": "uint256"
        }
      ],
      "stateMutability": "view",
      "type": "function"
    },
    {
      "inputs": [
        {
          "internalType": "address",
          "name": "owner",
          "type": "address"
        },
        {
          "internalType": "uint256",
          "name": "index",
          "type": "uint256"
        }
      ],
      "name": "tokenOfOwnerByIndex",
      "outputs": [
        {
          "internalType": "uint256",
          "name": "",
          "type": "uint256"
        }
      ],
      "stateMutability": "view",
      "type": "function"
    },
    {
      "inputs": [],
      "name": "totalSupply",
      "outputs": [
        {
          "internalType": "uint256",
          "name": "",
          "type": "uint256"
        }
      ],
      "stateMutability": "view",
      "type": "function"
    }
  ],
  "bytecode": "0x608060405234801561001057600080fd5b506100407f01ffc9a7a5cef8baa21ed3c5c0d7e23accb804b619e9333b597f47a0d84076e261012b60201b60201c565b6100b37f22c82707ba960a14c7592ffb6b8cfaa073fed0048a84cc7fa41f6b5bd8e7f2e47f3a6eb71757dfc6e784c1459d26270140c2c147d95ca985c80026fc5301c3eca17f8a7e378434598edc36d108689a030cbc9d7d465de4f74c71bae1028eed6a881b181861012b60201b60201c565b6101267f8230223f691b981717299fae9549350a0d894555723531f02108b1f522c1a7977f6da5e1284143cdd2d15038a59bde3be031250f00291d64494c12d967b3a4e0c37fc53637662700e6c65104059db8bba34439e0c32483ab7c34e3ccae52c7395495181861012b60201b60201c565b61027d565b63ffffffff60e01b817bffffffffffffffffffffffffffffffffffffffffffffffffffffffff19161415610194576040517f08c379a000000000000000000000000000000000000000000000000000000000815260040161018b90610223565b60405180910390fd5b6001600080837bffffffffffffffffffffffffffffffffffffffffffffffffffffffff19167bffffffffffffffffffffffffffffffffffffffffffffffffffffffff1916815260200190815260200160002060006101000a81548160ff02191690831515021790555050565b600061020d601983610243565b915061021882610254565b602082019050919050565b6000602082019050818103600083015261023c81610200565b9050919050565b600082825260208201905092915050565b7f496e76616c696420696e74657266616365207265717565737400000000000000600082015250565b610e06806200028d6000396000f3fe608060405234801561001057600080fd5b506004361061007d5760003560e01c80632f745c591161005b5780632f745c59146100ec5780634f6ccce71461011c5780636352211e1461014c57806370a082311461017c5761007d565b806301ffc9a71461008257806318160ddd146100b257806323b872dd146100d0575b600080fd5b61009c60048036038101906100979190610915565b6101ac565b6040516100a99190610a5e565b60405180910390f35b6100ba610213565b6040516100c79190610b19565b60405180910390f35b6100ea60048036038101906100e5919061088a565b610220565b005b610106600480360381019061010191906108d9565b610243565b6040516101139190610b19565b60405180910390f35b6101366004803603810190610131919061093e565b610319565b6040516101439190610b19565b60405180910390f35b6101666004803603810190610161919061093e565b6103b0565b6040516101739190610a43565b60405180910390f35b61019660048036038101906101919190610861565b610459565b6040516101a39190610b19565b60405180910390f35b6000806000837bffffffffffffffffffffffffffffffffffffffffffffffffffffffff19167bffffffffffffffffffffffffffffffffffffffffffffffffffffffff1916815260200190815260200160002060009054906101000a900460ff169050919050565b6000600380549050905090565b61022a33826104db565b61023357600080fd5b61023e83838361056a565b505050565b600061024e83610459565b821061028f576040517f08c379a000000000000000000000000000000000000000000000000000000000815260040161028690610ab9565b60405180910390fd5b600560008473ffffffffffffffffffffffffffffffffffffffff1673ffffffffffffffffffffffffffffffffffffffff1681526020019081526020016000208281548110610306577f4e487b7100000000000000000000000000000000000000000000000000000000600052603260045260246000fd5b9060005260206000200154905092915050565b6000610323610213565b8210610364576040517f08c379a000000000000000000000000000000000000000000000000000000000815260040161035b90610a99565b60405180910390fd5b6003828154811061039e577f4e487b7100000000000000000000000000000000000000000000000000000000600052603260045260246000fd5b90600052602060002001549050919050565b60008073ffffffffffffffffffffffffffffffffffffffff166001600084815260200190815260200160002060009054906101000a900473ffffffffffffffffffffffffffffffffffffffff1673ffffffffffffffffffffffffffffffffffffffff16141561041e57600080fd5b6001600083815260200190815260200160002060009054906101000a900473ffffffffffffffffffffffffffffffffffffffff169050919050565b60008073ffffffffffffffffffffffffffffffffffffffff168273ffffffffffffffffffffffffffffffffffffffff16141561049457600080fd5b600260008373ffffffffffffffffffffffffffffffffffffffff1673ffffffffffffffffffffffffffffffffffffffff168152602001908152602001600020549050919050565b60006104e6826107b0565b610525576040517f08c379a000000000000000000000000000000000000000000000000000000000815260040161051c90610af9565b60405180910390fd5b6000610530836103b0565b90508073ffffffffffffffffffffffffffffffffffffffff168473ffffffffffffffffffffffffffffffffffffffff161491505092915050565b600073ffffffffffffffffffffffffffffffffffffffff168273ffffffffffffffffffffffffffffffffffffffff1614156105da576040517f08c379a00000000000000000000000000000000000000000000000000000000081526004016105d190610a79565b60405180910390fd5b8273ffffffffffffffffffffffffffffffffffffffff166105fa826103b0565b73ffffffffffffffffffffffffffffffffffffffff1614610650576040517f08c379a000000000000000000000000000000000000000000000000000000000815260040161064790610ad9565b60405180910390fd5b6001600260008573ffffffffffffffffffffffffffffffffffffffff1673ffffffffffffffffffffffffffffffffffffffff16815260200190815260200160002060008282546106a09190610b9b565b925050819055506001600260008473ffffffffffffffffffffffffffffffffffffffff1673ffffffffffffffffffffffffffffffffffffffff16815260200190815260200160002060008282546106f79190610b45565b92505081905550816001600083815260200190815260200160002060006101000a81548173ffffffffffffffffffffffffffffffffffffffff021916908373ffffffffffffffffffffffffffffffffffffffff160217905550808273ffffffffffffffffffffffffffffffffffffffff168473ffffffffffffffffffffffffffffffffffffffff167fddf252ad1be2c89b69c2b068fc378daa952ba7f163c4a11628f55a4df523b3ef60405160405180910390a4505050565b6000806001600084815260200190815260200160002060009054906101000a900473ffffffffffffffffffffffffffffffffffffffff169050600073ffffffffffffffffffffffffffffffffffffffff168173ffffffffffffffffffffffffffffffffffffffff161415915050919050565b60008135905061083181610d8b565b92915050565b60008135905061084681610da2565b92915050565b60008135905061085b81610db9565b92915050565b60006020828403121561087357600080fd5b600061088184828501610822565b91505092915050565b60008060006060848603121561089f57600080fd5b60006108ad86828701610822565b93505060206108be86828701610822565b92505060406108cf8682870161084c565b9150509250925092565b600080604083850312156108ec57600080fd5b60006108fa85828601610822565b925050602061090b8582860161084c565b9150509250929050565b60006020828403121561092757600080fd5b600061093584828501610837565b91505092915050565b60006020828403121561095057600080fd5b600061095e8482850161084c565b91505092915050565b61097081610bcf565b82525050565b61097f81610be1565b82525050565b6000610992602b83610b34565b915061099d82610c72565b604082019050919050565b60006109b5601983610b34565b91506109c082610cc1565b602082019050919050565b60006109d8601883610b34565b91506109e382610cea565b602082019050919050565b60006109fb603483610b34565b9150610a0682610d13565b604082019050919050565b6000610a1e601483610b34565b9150610a2982610d62565b602082019050919050565b610a3d81610c39565b82525050565b6000602082019050610a586000830184610967565b92915050565b6000602082019050610a736000830184610976565b92915050565b60006020820190508181036000830152610a9281610985565b9050919050565b60006020820190508181036000830152610ab2816109a8565b9050919050565b60006020820190508181036000830152610ad2816109cb565b9050919050565b60006020820190508181036000830152610af2816109ee565b9050919050565b60006020820190508181036000830152610b1281610a11565b9050919050565b6000602082019050610b2e6000830184610a34565b92915050565b600082825260208201905092915050565b6000610b5082610c39565b9150610b5b83610c39565b9250827fffffffffffffffffffffffffffffffffffffffffffffffffffffffffffffffff03821115610b9057610b8f610c43565b5b828201905092915050565b6000610ba682610c39565b9150610bb183610c39565b925082821015610bc457610bc3610c43565b5b828203905092915050565b6000610bda82610c19565b9050919050565b60008115159050919050565b60007fffffffff0000000000000000000000000000000000000000000000000000000082169050919050565b600073ffffffffffffffffffffffffffffffffffffffff82169050919050565b6000819050919050565b7f4e487b7100000000000000000000000000000000000000000000000000000000600052601160045260246000fd5b7f4572726f72202d20455243373231205472616e7366657220746f20746865207a60008201527f65726f2061646472657373000000000000000000000000000000000000000000602082015250565b7f474c4f42414c20494e444558204f5554204f4620424f554e4400000000000000600082015250565b7f4f574e455220494e444558204f5554204f4620424f554e440000000000000000600082015250565b7f547279696e6720746f207472616e73666572206120746f6b656e20746865206160008201527f64647265737320646f6573206e6f74206f776e21000000000000000000000000602082015250565b7f746f6b656e20646f6573206e6f74206578697374000000000000000000000000600082015250565b610d9481610bcf565b8114610d9f57600080fd5b50565b610dab81610bed565b8114610db657600080fd5b50565b610dc281610c39565b8114610dcd57600080fd5b5056fea2646970667358221220c3bac1444cd33276cf9af75ae3c8372fd719b2d3a6fa5130806b3d7efe0e48a164736f6c63430008040033",
  "immutableReferences": {},
  "source": "// SPDX-License-Identifier: MIT\r\npragma solidity ^0.8.0;\r\n\r\nimport './ERC721.sol';\r\nimport './interfaces/IERC721Enumerable.sol';\r\n\r\ncontract ERC721Enumerable is ERC721 , IERC721Enumerable {\r\n\r\n    uint[] private _allTokens;\r\n\r\n    //mapping from tokenId to position in _allTokens array\r\n    mapping(uint => uint) private _allTokensIndex;\r\n\r\n    //mapping of owner to list of all tokens owned by owner\r\n    mapping(address => uint[]) private _ownedTokens;\r\n \r\n    //mapping from tokenId index to owner's tokens list\r\n    mapping(uint => uint) private _ownedTokensIndex;\r\n\r\n     constructor() {\r\n        _registerInterface(bytes4(keccak256('totalSupply(bytes4)')^\r\n        keccak256('tokenByIndex(bytes4)')^keccak256('tokenOfOwnerByIndex(bytes4)')));\r\n    }\r\n\r\n\r\n    //minting a token\r\n    function _mint(address to , uint tokenId) internal override(ERC721){\r\n        super._mint(to,tokenId);\r\n\r\n        //adding tokens to total Supply\r\n        _addTokenstoTotalEnumeration(tokenId);\r\n\r\n        //adding tokens for the owner\r\n        _addTokenstoOwnerEnumeration(to,tokenId);\r\n        \r\n    }\r\n\r\n    function _addTokenstoOwnerEnumeration(address to , uint tokenId) private{\r\n        //add address and token id to _ownedTokens\r\n        _ownedTokens[to].push(tokenId);\r\n\r\n        //ownedTokensIndex tokenId set to address of ownedTokens position\r\n        _ownedTokensIndex[tokenId] = _ownedTokens[to].length;\r\n\r\n    }\r\n\r\n    //adding a token to the total supply _allTokens array and set position of token's index\r\n    function _addTokenstoTotalEnumeration(uint tokenId) private {\r\n        _allTokensIndex[tokenId] = _allTokens.length;\r\n        _allTokens.push(tokenId);\r\n    }\r\n\r\n    //function that returns tokenByIndex\r\n    function tokenByIndex(uint index) public view override returns(uint){\r\n        //index is not out of bounds\r\n        require(index < totalSupply() , 'GLOBAL INDEX OUT OF BOUND');\r\n        return _allTokens[index];\r\n    }\r\n\r\n    //function that returns tokenofOwnerByIndex\r\n    function tokenOfOwnerByIndex(address owner,uint index) public view override returns(uint){\r\n        //index shpuld be less than the number of Tokens owned by the Owner\r\n        require(index < balanceOf(owner),'OWNER INDEX OUT OF BOUND');\r\n        return _ownedTokens[owner][index];\r\n    }\r\n\r\n    //count of all the tokens\r\n    function totalSupply() public view override returns (uint){\r\n        return _allTokens.length;\r\n    }\r\n}",
  "sourcePath": "C:/Users/ACER/Desktop/Projects/Blockchain_Projects/Kryptokitties/KryptoBirdz/src/contracts/ERC721Enumerable.sol",
  "compiler": {
    "name": "solc",
    "version": "0.8.4+commit.c7e474f2.Emscripten.clang"
  },
  "schemaVersion": "3.4.1",
  "updatedAt": "2022-01-15T16:03:13.197Z",
  "devdoc": {
    "kind": "dev",
    "methods": {
      "supportsInterface(bytes4)": {
        "details": "Interface identification is specified in ERC-165. This function  uses less than 30,000 gas.",
        "params": {
          "interfaceID": "The interface identifier, as specified in ERC-165"
        },
        "returns": {
          "_0": "`true` if the contract implements `interfaceID` and  `interfaceID` is not 0xffffffff, `false` otherwise"
        }
      }
    },
    "version": 1
  },
  "userdoc": {
    "kind": "user",
    "methods": {
      "supportsInterface(bytes4)": {
        "notice": "Query if a contract implements an interface"
      }
    },
    "version": 1
  }
}