{
  "contractName": "ERC721",
  "abi": [
    {
      "inputs": [],
      "stateMutability": "nonpayable",
      "type": "constructor"
    },
    {
      "anonymous": false,
      "inputs": [
        {
          "indexed": true,
          "internalType": "address",
          "name": "_owner",
          "type": "address"
        },
        {
          "indexed": true,
          "internalType": "address",
          "name": "_approved",
          "type": "address"
        },
        {
          "indexed": true,
          "internalType": "uint256",
          "name": "_tokenId",
          "type": "uint256"
        }
      ],
      "name": "Approval",
      "type": "event"
    },
    {
      "anonymous": false,
      "inputs": [
        {
          "indexed": true,
          "internalType": "address",
          "name": "_from",
          "type": "address"
        },
        {
          "indexed": true,
          "internalType": "address",
          "name": "_to",
          "type": "address"
        },
        {
          "indexed": true,
          "internalType": "uint256",
          "name": "_tokenId",
          "type": "uint256"
        }
      ],
      "name": "Transfer",
      "type": "event"
    },
    {
      "inputs": [
        {
          "internalType": "bytes4",
          "name": "interfaceID",
          "type": "bytes4"
        }
      ],
      "name": "supportsInterface",
      "outputs": [
        {
          "internalType": "bool",
          "name": "",
          "type": "bool"
        }
      ],
      "stateMutability": "view",
      "type": "function"
    },
    {
      "inputs": [
        {
          "internalType": "address",
          "name": "_owner",
          "type": "address"
        }
      ],
      "name": "balanceOf",
      "outputs": [
        {
          "internalType": "uint256",
          "name": "",
          "type": "uint256"
        }
      ],
      "stateMutability": "view",
      "type": "function"
    },
    {
      "inputs": [
        {
          "internalType": "uint256",
          "name": "_tokenId",
          "type": "uint256"
        }
      ],
      "name": "ownerOf",
      "outputs": [
        {
          "internalType": "address",
          "name": "",
          "type": "address"
        }
      ],
      "stateMutability": "view",
      "type": "function"
    },
    {
      "inputs": [
        {
          "internalType": "address",
          "name": "_from",
          "type": "address"
        },
        {
          "internalType": "address",
          "name": "_to",
          "type": "address"
        },
        {
          "internalType": "uint256",
          "name": "_tokenId",
          "type": "uint256"
        }
      ],
      "name": "transferFrom",
      "outputs": [],
      "stateMutability": "nonpayable",
      "type": "function"
    }
  ],
  "bytecode": "0x608060405234801561001057600080fd5b506100407f01ffc9a7a5cef8baa21ed3c5c0d7e23accb804b619e9333b597f47a0d84076e26100b860201b60201c565b6100b37f22c82707ba960a14c7592ffb6b8cfaa073fed0048a84cc7fa41f6b5bd8e7f2e47f3a6eb71757dfc6e784c1459d26270140c2c147d95ca985c80026fc5301c3eca17f8a7e378434598edc36d108689a030cbc9d7d465de4f74c71bae1028eed6a881b18186100b860201b60201c565b61020a565b63ffffffff60e01b817bffffffffffffffffffffffffffffffffffffffffffffffffffffffff19161415610121576040517f08c379a0000000000000000000000000000000000000000000000000000000008152600401610118906101b0565b60405180910390fd5b6001600080837bffffffffffffffffffffffffffffffffffffffffffffffffffffffff19167bffffffffffffffffffffffffffffffffffffffffffffffffffffffff1916815260200190815260200160002060006101000a81548160ff02191690831515021790555050565b600061019a6019836101d0565b91506101a5826101e1565b602082019050919050565b600060208201905081810360008301526101c98161018d565b9050919050565b600082825260208201905092915050565b7f496e76616c696420696e74657266616365207265717565737400000000000000600082015250565b610ac9806102196000396000f3fe608060405234801561001057600080fd5b506004361061004c5760003560e01c806301ffc9a71461005157806323b872dd146100815780636352211e1461009d57806370a08231146100cd575b600080fd5b61006b600480360381019061006691906106b0565b6100fd565b60405161007891906107b3565b60405180910390f35b61009b60048036038101906100969190610661565b610164565b005b6100b760048036038101906100b291906106d9565b610187565b6040516100c49190610798565b60405180910390f35b6100e760048036038101906100e29190610638565b610230565b6040516100f4919061082e565b60405180910390f35b6000806000837bffffffffffffffffffffffffffffffffffffffffffffffffffffffff19167bffffffffffffffffffffffffffffffffffffffffffffffffffffffff1916815260200190815260200160002060009054906101000a900460ff169050919050565b61016e33826102b2565b61017757600080fd5b610182838383610341565b505050565b60008073ffffffffffffffffffffffffffffffffffffffff166001600084815260200190815260200160002060009054906101000a900473ffffffffffffffffffffffffffffffffffffffff1673ffffffffffffffffffffffffffffffffffffffff1614156101f557600080fd5b6001600083815260200190815260200160002060009054906101000a900473ffffffffffffffffffffffffffffffffffffffff169050919050565b60008073ffffffffffffffffffffffffffffffffffffffff168273ffffffffffffffffffffffffffffffffffffffff16141561026b57600080fd5b600260008373ffffffffffffffffffffffffffffffffffffffff1673ffffffffffffffffffffffffffffffffffffffff168152602001908152602001600020549050919050565b60006102bd82610587565b6102fc576040517f08c379a00000000000000000000000000000000000000000000000000000000081526004016102f39061080e565b60405180910390fd5b600061030783610187565b90508073ffffffffffffffffffffffffffffffffffffffff168473ffffffffffffffffffffffffffffffffffffffff161491505092915050565b600073ffffffffffffffffffffffffffffffffffffffff168273ffffffffffffffffffffffffffffffffffffffff1614156103b1576040517f08c379a00000000000000000000000000000000000000000000000000000000081526004016103a8906107ce565b60405180910390fd5b8273ffffffffffffffffffffffffffffffffffffffff166103d182610187565b73ffffffffffffffffffffffffffffffffffffffff1614610427576040517f08c379a000000000000000000000000000000000000000000000000000000000815260040161041e906107ee565b60405180910390fd5b6001600260008573ffffffffffffffffffffffffffffffffffffffff1673ffffffffffffffffffffffffffffffffffffffff168152602001908152602001600020600082825461047791906108b0565b925050819055506001600260008473ffffffffffffffffffffffffffffffffffffffff1673ffffffffffffffffffffffffffffffffffffffff16815260200190815260200160002060008282546104ce919061085a565b92505081905550816001600083815260200190815260200160002060006101000a81548173ffffffffffffffffffffffffffffffffffffffff021916908373ffffffffffffffffffffffffffffffffffffffff160217905550808273ffffffffffffffffffffffffffffffffffffffff168473ffffffffffffffffffffffffffffffffffffffff167fddf252ad1be2c89b69c2b068fc378daa952ba7f163c4a11628f55a4df523b3ef60405160405180910390a4505050565b6000806001600084815260200190815260200160002060009054906101000a900473ffffffffffffffffffffffffffffffffffffffff169050600073ffffffffffffffffffffffffffffffffffffffff168173ffffffffffffffffffffffffffffffffffffffff161415915050919050565b60008135905061060881610a4e565b92915050565b60008135905061061d81610a65565b92915050565b60008135905061063281610a7c565b92915050565b60006020828403121561064a57600080fd5b6000610658848285016105f9565b91505092915050565b60008060006060848603121561067657600080fd5b6000610684868287016105f9565b9350506020610695868287016105f9565b92505060406106a686828701610623565b9150509250925092565b6000602082840312156106c257600080fd5b60006106d08482850161060e565b91505092915050565b6000602082840312156106eb57600080fd5b60006106f984828501610623565b91505092915050565b61070b816108e4565b82525050565b61071a816108f6565b82525050565b600061072d602b83610849565b915061073882610987565b604082019050919050565b6000610750603483610849565b915061075b826109d6565b604082019050919050565b6000610773601483610849565b915061077e82610a25565b602082019050919050565b6107928161094e565b82525050565b60006020820190506107ad6000830184610702565b92915050565b60006020820190506107c86000830184610711565b92915050565b600060208201905081810360008301526107e781610720565b9050919050565b6000602082019050818103600083015261080781610743565b9050919050565b6000602082019050818103600083015261082781610766565b9050919050565b60006020820190506108436000830184610789565b92915050565b600082825260208201905092915050565b60006108658261094e565b91506108708361094e565b9250827fffffffffffffffffffffffffffffffffffffffffffffffffffffffffffffffff038211156108a5576108a4610958565b5b828201905092915050565b60006108bb8261094e565b91506108c68361094e565b9250828210156108d9576108d8610958565b5b828203905092915050565b60006108ef8261092e565b9050919050565b60008115159050919050565b60007fffffffff0000000000000000000000000000000000000000000000000000000082169050919050565b600073ffffffffffffffffffffffffffffffffffffffff82169050919050565b6000819050919050565b7f4e487b7100000000000000000000000000000000000000000000000000000000600052601160045260246000fd5b7f4572726f72202d20455243373231205472616e7366657220746f20746865207a60008201527f65726f2061646472657373000000000000000000000000000000000000000000602082015250565b7f547279696e6720746f207472616e73666572206120746f6b656e20746865206160008201527f64647265737320646f6573206e6f74206f776e21000000000000000000000000602082015250565b7f746f6b656e20646f6573206e6f74206578697374000000000000000000000000600082015250565b610a57816108e4565b8114610a6257600080fd5b50565b610a6e81610902565b8114610a7957600080fd5b50565b610a858161094e565b8114610a9057600080fd5b5056fea2646970667358221220f7c13c79c01fa48f16be4cd3ad5101bf56a532a64eabfdeb0854526b94d27f7a64736f6c63430008040033",
  "immutableReferences": {},
  "source": "// SPDX-License-Identifier: MIT\r\npragma solidity ^0.8.0;\r\n\r\nimport './ERC165.sol';\r\nimport './interfaces/IERC721.sol';\r\n\r\n/*\r\n\r\n1. NFT to point an address\r\n2. Keep track of token ids\r\n3. Keep track of tokenOwnerAddress to token ids\r\n4. Keep track of how many tokens an owner address has\r\n5. Create event that emits a transfer log - contract address \r\n   where it is minted to , the id.\r\n*/\r\n\r\n\r\ncontract ERC721 is ERC165 , IERC721{\r\n\r\n    //mapping from token id to owner\r\n    mapping(uint => address) private _tokenOwner;\r\n\r\n    //mapping from owner to number of owner tokens\r\n    mapping(address => uint) private _OwnedTokensCount;\r\n\r\n    //from is the contract address , to is whom we are transfering \r\n    //indexed is used to save gas fees\r\n    //event Transfer(address indexed from , address indexed to , uint indexed tokenId); \r\n\r\n    \r\n     constructor() {\r\n        _registerInterface(bytes4(keccak256('balanceOf(bytes4)')^\r\n        keccak256('ownerOf(bytes4)')^keccak256('transferFrom(bytes4)')));\r\n    }\r\n\r\n    //return the number of NFT's owned by owner , can be 0\r\n    function balanceOf(address _owner) public view override returns(uint){\r\n        require(_owner != address(0));\r\n        return _OwnedTokensCount[_owner];\r\n    }\r\n\r\n    //returns owner of tokenId\r\n    function ownerOf(uint _tokenId) public view override returns(address){\r\n        require(_tokenOwner[_tokenId] != address(0));\r\n        return _tokenOwner[_tokenId];\r\n    }\r\n    \r\n    \r\n    //to check whether the tokenID exists or not\r\n    function _exists(uint _tokenId) internal view returns(bool){\r\n        address owner = _tokenOwner[_tokenId];\r\n\r\n        return (owner != address(0));\r\n    }\r\n\r\n    function _mint(address _to , uint _tokenId) internal virtual {\r\n        \r\n        //address isn't invalid or zero\r\n        require(_to != address(0) , 'ERC721 : MINTING TO ZERO ADDRESS'); //address should not be invalid\r\n        \r\n        //token doesn't already exists\r\n        require(!_exists(_tokenId) , 'ERC721 : TOKEN ALREADY MINTED');\r\n        \r\n        //adding a new address with a tokenID for minting\r\n        _tokenOwner[_tokenId] = _to;\r\n        \r\n        //adding the tokenID count for the address\r\n        _OwnedTokensCount[_to] += 1; \r\n\r\n        emit Transfer(address(0) , _to , _tokenId);\r\n    }\r\n\r\n    function _transferFrom(address _from, address _to, uint256 _tokenId) internal {\r\n        require(_to != address(0), 'Error - ERC721 Transfer to the zero address');\r\n        require(ownerOf(_tokenId) == _from, 'Trying to transfer a token the address does not own!');\r\n\r\n        _OwnedTokensCount[_from] -= 1;\r\n\r\n        _OwnedTokensCount[_to] += 1;\r\n\r\n        _tokenOwner[_tokenId] = _to;\r\n\r\n        emit Transfer(_from, _to, _tokenId);\r\n    }\r\n\r\n    function transferFrom(address _from, address _to, uint256 _tokenId) override public {\r\n        require(isApprovedOrOwner(msg.sender, _tokenId));\r\n        _transferFrom(_from, _to, _tokenId);\r\n\r\n    }\r\n\r\n    function isApprovedOrOwner(address spender, uint256 tokenId) internal view returns(bool) {\r\n        require(_exists(tokenId), 'token does not exist');\r\n        address owner = ownerOf(tokenId);\r\n        return(spender == owner); \r\n    }\r\n\r\n}",
  "sourcePath": "C:/Users/ACER/Desktop/Projects/Blockchain_Projects/Kryptokitties/KryptoBirdz/src/contracts/ERC721.sol",
  "compiler": {
    "name": "solc",
    "version": "0.8.4+commit.c7e474f2.Emscripten.clang"
  },
  "schemaVersion": "3.4.1",
  "updatedAt": "2022-01-16T07:39:21.602Z",
  "devdoc": {
    "kind": "dev",
    "methods": {
      "supportsInterface(bytes4)": {
        "details": "Interface identification is specified in ERC-165. This function  uses less than 30,000 gas.",
        "params": {
          "interfaceID": "The interface identifier, as specified in ERC-165"
        },
        "returns": {
          "_0": "`true` if the contract implements `interfaceID` and  `interfaceID` is not 0xffffffff, `false` otherwise"
        }
      }
    },
    "version": 1
  },
  "userdoc": {
    "kind": "user",
    "methods": {
      "supportsInterface(bytes4)": {
        "notice": "Query if a contract implements an interface"
      }
    },
    "version": 1
  }
}