{
  "contractName": "KryptoBird",
  "abi": [
    {
      "inputs": [],
      "stateMutability": "nonpayable",
      "type": "constructor"
    },
    {
      "anonymous": false,
      "inputs": [
        {
          "indexed": true,
          "internalType": "address",
          "name": "_owner",
          "type": "address"
        },
        {
          "indexed": true,
          "internalType": "address",
          "name": "_approved",
          "type": "address"
        },
        {
          "indexed": true,
          "internalType": "uint256",
          "name": "_tokenId",
          "type": "uint256"
        }
      ],
      "name": "Approval",
      "type": "event"
    },
    {
      "anonymous": false,
      "inputs": [
        {
          "indexed": true,
          "internalType": "address",
          "name": "_from",
          "type": "address"
        },
        {
          "indexed": true,
          "internalType": "address",
          "name": "_to",
          "type": "address"
        },
        {
          "indexed": true,
          "internalType": "uint256",
          "name": "_tokenId",
          "type": "uint256"
        }
      ],
      "name": "Transfer",
      "type": "event"
    },
    {
      "inputs": [
        {
          "internalType": "uint256",
          "name": "",
          "type": "uint256"
        }
      ],
      "name": "KryptoBirdz",
      "outputs": [
        {
          "internalType": "string",
          "name": "",
          "type": "string"
        }
      ],
      "stateMutability": "view",
      "type": "function",
      "constant": true
    },
    {
      "inputs": [
        {
          "internalType": "address",
          "name": "_owner",
          "type": "address"
        }
      ],
      "name": "balanceOf",
      "outputs": [
        {
          "internalType": "uint256",
          "name": "",
          "type": "uint256"
        }
      ],
      "stateMutability": "view",
      "type": "function",
      "constant": true
    },
    {
      "inputs": [],
      "name": "name",
      "outputs": [
        {
          "internalType": "string",
          "name": "",
          "type": "string"
        }
      ],
      "stateMutability": "view",
      "type": "function",
      "constant": true
    },
    {
      "inputs": [
        {
          "internalType": "uint256",
          "name": "_tokenId",
          "type": "uint256"
        }
      ],
      "name": "ownerOf",
      "outputs": [
        {
          "internalType": "address",
          "name": "",
          "type": "address"
        }
      ],
      "stateMutability": "view",
      "type": "function",
      "constant": true
    },
    {
      "inputs": [
        {
          "internalType": "bytes4",
          "name": "interfaceID",
          "type": "bytes4"
        }
      ],
      "name": "supportsInterface",
      "outputs": [
        {
          "internalType": "bool",
          "name": "",
          "type": "bool"
        }
      ],
      "stateMutability": "view",
      "type": "function",
      "constant": true
    },
    {
      "inputs": [],
      "name": "symbol",
      "outputs": [
        {
          "internalType": "string",
          "name": "",
          "type": "string"
        }
      ],
      "stateMutability": "view",
      "type": "function",
      "constant": true
    },
    {
      "inputs": [
        {
          "internalType": "uint256",
          "name": "index",
          "type": "uint256"
        }
      ],
      "name": "tokenByIndex",
      "outputs": [
        {
          "internalType": "uint256",
          "name": "",
          "type": "uint256"
        }
      ],
      "stateMutability": "view",
      "type": "function",
      "constant": true
    },
    {
      "inputs": [
        {
          "internalType": "address",
          "name": "owner",
          "type": "address"
        },
        {
          "internalType": "uint256",
          "name": "index",
          "type": "uint256"
        }
      ],
      "name": "tokenOfOwnerByIndex",
      "outputs": [
        {
          "internalType": "uint256",
          "name": "",
          "type": "uint256"
        }
      ],
      "stateMutability": "view",
      "type": "function",
      "constant": true
    },
    {
      "inputs": [],
      "name": "totalSupply",
      "outputs": [
        {
          "internalType": "uint256",
          "name": "",
          "type": "uint256"
        }
      ],
      "stateMutability": "view",
      "type": "function",
      "constant": true
    },
    {
      "inputs": [
        {
          "internalType": "address",
          "name": "_from",
          "type": "address"
        },
        {
          "internalType": "address",
          "name": "_to",
          "type": "address"
        },
        {
          "internalType": "uint256",
          "name": "_tokenId",
          "type": "uint256"
        }
      ],
      "name": "transferFrom",
      "outputs": [],
      "stateMutability": "nonpayable",
      "type": "function"
    },
    {
      "inputs": [
        {
          "internalType": "string",
          "name": "_kryptoBird",
          "type": "string"
        }
      ],
      "name": "mint",
      "outputs": [],
      "stateMutability": "nonpayable",
      "type": "function"
    }
  ],
  "bytecode": "0x60806040523480156200001157600080fd5b506040518060400160405280600b81526020017f4b727970746f626972647a0000000000000000000000000000000000000000008152506040518060400160405280600681526020017f4b424952445a00000000000000000000000000000000000000000000000000008152508181620000b17f01ffc9a7a5cef8baa21ed3c5c0d7e23accb804b619e9333b597f47a0d84076e26200022a60201b60201c565b620001047f13b182f4c0e5b2efbac0efe6cf6d756c8b89f4b79c5707a043ed9ea740574ee97f7feaf19471f34a12a7eaf32d5f3090aa2260ea8624dc8a138e74e0bf0f623076186200022a60201b60201c565b81600190805190602001906200011c92919062000302565b5080600290805190602001906200013592919062000302565b505050620001ad7f22c82707ba960a14c7592ffb6b8cfaa073fed0048a84cc7fa41f6b5bd8e7f2e47f3a6eb71757dfc6e784c1459d26270140c2c147d95ca985c80026fc5301c3eca17f8a7e378434598edc36d108689a030cbc9d7d465de4f74c71bae1028eed6a881b18186200022a60201b60201c565b620002227f8230223f691b981717299fae9549350a0d894555723531f02108b1f522c1a7977f6da5e1284143cdd2d15038a59bde3be031250f00291d64494c12d967b3a4e0c37fc53637662700e6c65104059db8bba34439e0c32483ab7c34e3ccae52c739549518186200022a60201b60201c565b50506200049a565b63ffffffff60e01b817bffffffffffffffffffffffffffffffffffffffffffffffffffffffff1916141562000296576040517f08c379a00000000000000000000000000000000000000000000000000000000081526004016200028d90620003d9565b60405180910390fd5b6001600080837bffffffffffffffffffffffffffffffffffffffffffffffffffffffff19167bffffffffffffffffffffffffffffffffffffffffffffffffffffffff1916815260200190815260200160002060006101000a81548160ff02191690831515021790555050565b82805462000310906200040c565b90600052602060002090601f01602090048101928262000334576000855562000380565b82601f106200034f57805160ff191683800117855562000380565b8280016001018555821562000380579182015b828111156200037f57825182559160200191906001019062000362565b5b5090506200038f919062000393565b5090565b5b80821115620003ae57600081600090555060010162000394565b5090565b6000620003c1601983620003fb565b9150620003ce8262000471565b602082019050919050565b60006020820190508181036000830152620003f481620003b2565b9050919050565b600082825260208201905092915050565b600060028204905060018216806200042557607f821691505b602082108114156200043c576200043b62000442565b5b50919050565b7f4e487b7100000000000000000000000000000000000000000000000000000000600052602260045260246000fd5b7f496e76616c696420696e74657266616365207265717565737400000000000000600082015250565b61195680620004aa6000396000f3fe608060405234801561001057600080fd5b50600436106100a95760003560e01c80634f6ccce7116100715780634f6ccce7146101665780636352211e1461019657806370a08231146101c657806395d89b41146101f6578063a3a1ff5814610214578063d85d3d2714610244576100a9565b806301ffc9a7146100ae57806306fdde03146100de57806318160ddd146100fc57806323b872dd1461011a5780632f745c5914610136575b600080fd5b6100c860048036038101906100c39190611097565b610260565b6040516100d5919061130b565b60405180910390f35b6100e66102c7565b6040516100f39190611326565b60405180910390f35b610104610359565b6040516101119190611448565b60405180910390f35b610134600480360381019061012f919061100c565b610366565b005b610150600480360381019061014b919061105b565b610389565b60405161015d9190611448565b60405180910390f35b610180600480360381019061017b9190611101565b61045f565b60405161018d9190611448565b60405180910390f35b6101b060048036038101906101ab9190611101565b6104f6565b6040516101bd91906112f0565b60405180910390f35b6101e060048036038101906101db9190610fe3565b61059f565b6040516101ed9190611448565b60405180910390f35b6101fe610621565b60405161020b9190611326565b60405180910390f35b61022e60048036038101906102299190611101565b6106b3565b60405161023b9190611326565b60405180910390f35b61025e600480360381019061025991906110c0565b61075f565b005b6000806000837bffffffffffffffffffffffffffffffffffffffffffffffffffffffff19167bffffffffffffffffffffffffffffffffffffffffffffffffffffffff1916815260200190815260200160002060009054906101000a900460ff169050919050565b6060600180546102d690611620565b80601f016020809104026020016040519081016040528092919081815260200182805461030290611620565b801561034f5780601f106103245761010080835404028352916020019161034f565b820191906000526020600020905b81548152906001019060200180831161033257829003601f168201915b5050505050905090565b6000600580549050905090565b6103703382610862565b61037957600080fd5b6103848383836108f1565b505050565b60006103948361059f565b82106103d5576040517f08c379a00000000000000000000000000000000000000000000000000000000081526004016103cc90611388565b60405180910390fd5b600760008473ffffffffffffffffffffffffffffffffffffffff1673ffffffffffffffffffffffffffffffffffffffff168152602001908152602001600020828154811061044c577f4e487b7100000000000000000000000000000000000000000000000000000000600052603260045260246000fd5b9060005260206000200154905092915050565b6000610469610359565b82106104aa576040517f08c379a00000000000000000000000000000000000000000000000000000000081526004016104a190611368565b60405180910390fd5b600582815481106104e4577f4e487b7100000000000000000000000000000000000000000000000000000000600052603260045260246000fd5b90600052602060002001549050919050565b60008073ffffffffffffffffffffffffffffffffffffffff166003600084815260200190815260200160002060009054906101000a900473ffffffffffffffffffffffffffffffffffffffff1673ffffffffffffffffffffffffffffffffffffffff16141561056457600080fd5b6003600083815260200190815260200160002060009054906101000a900473ffffffffffffffffffffffffffffffffffffffff169050919050565b60008073ffffffffffffffffffffffffffffffffffffffff168273ffffffffffffffffffffffffffffffffffffffff1614156105da57600080fd5b600460008373ffffffffffffffffffffffffffffffffffffffff1673ffffffffffffffffffffffffffffffffffffffff168152602001908152602001600020549050919050565b60606002805461063090611620565b80601f016020809104026020016040519081016040528092919081815260200182805461065c90611620565b80156106a95780601f1061067e576101008083540402835291602001916106a9565b820191906000526020600020905b81548152906001019060200180831161068c57829003601f168201915b5050505050905090565b600981815481106106c357600080fd5b9060005260206000200160009150905080546106de90611620565b80601f016020809104026020016040519081016040528092919081815260200182805461070a90611620565b80156107575780601f1061072c57610100808354040283529160200191610757565b820191906000526020600020905b81548152906001019060200180831161073a57829003601f168201915b505050505081565b600a8160405161076f91906112d9565b908152602001604051809103902060009054906101000a900460ff16156107cb576040517f08c379a00000000000000000000000000000000000000000000000000000000081526004016107c2906113c8565b60405180910390fd5b600981908060018154018082558091505060019003906000526020600020016000909190919091509080519060200190610806929190610e99565b506000600160098054905061081b9190611536565b90506108273382610b37565b6001600a8360405161083991906112d9565b908152602001604051809103902060006101000a81548160ff0219169083151502179055505050565b600061086d82610b58565b6108ac576040517f08c379a00000000000000000000000000000000000000000000000000000000081526004016108a390611428565b60405180910390fd5b60006108b7836104f6565b90508073ffffffffffffffffffffffffffffffffffffffff168473ffffffffffffffffffffffffffffffffffffffff161491505092915050565b600073ffffffffffffffffffffffffffffffffffffffff168273ffffffffffffffffffffffffffffffffffffffff161415610961576040517f08c379a000000000000000000000000000000000000000000000000000000000815260040161095890611348565b60405180910390fd5b8273ffffffffffffffffffffffffffffffffffffffff16610981826104f6565b73ffffffffffffffffffffffffffffffffffffffff16146109d7576040517f08c379a00000000000000000000000000000000000000000000000000000000081526004016109ce906113e8565b60405180910390fd5b6001600460008573ffffffffffffffffffffffffffffffffffffffff1673ffffffffffffffffffffffffffffffffffffffff1681526020019081526020016000206000828254610a279190611536565b925050819055506001600460008473ffffffffffffffffffffffffffffffffffffffff1673ffffffffffffffffffffffffffffffffffffffff1681526020019081526020016000206000828254610a7e91906114e0565b92505081905550816003600083815260200190815260200160002060006101000a81548173ffffffffffffffffffffffffffffffffffffffff021916908373ffffffffffffffffffffffffffffffffffffffff160217905550808273ffffffffffffffffffffffffffffffffffffffff168473ffffffffffffffffffffffffffffffffffffffff167fddf252ad1be2c89b69c2b068fc378daa952ba7f163c4a11628f55a4df523b3ef60405160405180910390a4505050565b610b418282610bca565b610b4a81610d8c565b610b548282610dd5565b5050565b6000806003600084815260200190815260200160002060009054906101000a900473ffffffffffffffffffffffffffffffffffffffff169050600073ffffffffffffffffffffffffffffffffffffffff168173ffffffffffffffffffffffffffffffffffffffff161415915050919050565b600073ffffffffffffffffffffffffffffffffffffffff168273ffffffffffffffffffffffffffffffffffffffff161415610c3a576040517f08c379a0000000000000000000000000000000000000000000000000000000008152600401610c31906113a8565b60405180910390fd5b610c4381610b58565b15610c83576040517f08c379a0000000000000000000000000000000000000000000000000000000008152600401610c7a90611408565b60405180910390fd5b816003600083815260200190815260200160002060006101000a81548173ffffffffffffffffffffffffffffffffffffffff021916908373ffffffffffffffffffffffffffffffffffffffff1602179055506001600460008473ffffffffffffffffffffffffffffffffffffffff1673ffffffffffffffffffffffffffffffffffffffff1681526020019081526020016000206000828254610d2591906114e0565b92505081905550808273ffffffffffffffffffffffffffffffffffffffff16600073ffffffffffffffffffffffffffffffffffffffff167fddf252ad1be2c89b69c2b068fc378daa952ba7f163c4a11628f55a4df523b3ef60405160405180910390a45050565b6005805490506006600083815260200190815260200160002081905550600581908060018154018082558091505060019003906000526020600020016000909190919091505550565b600760008373ffffffffffffffffffffffffffffffffffffffff1673ffffffffffffffffffffffffffffffffffffffff168152602001908152602001600020819080600181540180825580915050600190039060005260206000200160009091909190915055600760008373ffffffffffffffffffffffffffffffffffffffff1673ffffffffffffffffffffffffffffffffffffffff1681526020019081526020016000208054905060086000838152602001908152602001600020819055505050565b828054610ea590611620565b90600052602060002090601f016020900481019282610ec75760008555610f0e565b82601f10610ee057805160ff1916838001178555610f0e565b82800160010185558215610f0e579182015b82811115610f0d578251825591602001919060010190610ef2565b5b509050610f1b9190610f1f565b5090565b5b80821115610f38576000816000905550600101610f20565b5090565b6000610f4f610f4a84611488565b611463565b905082815260208101848484011115610f6757600080fd5b610f728482856115de565b509392505050565b600081359050610f89816118db565b92915050565b600081359050610f9e816118f2565b92915050565b600082601f830112610fb557600080fd5b8135610fc5848260208601610f3c565b91505092915050565b600081359050610fdd81611909565b92915050565b600060208284031215610ff557600080fd5b600061100384828501610f7a565b91505092915050565b60008060006060848603121561102157600080fd5b600061102f86828701610f7a565b935050602061104086828701610f7a565b925050604061105186828701610fce565b9150509250925092565b6000806040838503121561106e57600080fd5b600061107c85828601610f7a565b925050602061108d85828601610fce565b9150509250929050565b6000602082840312156110a957600080fd5b60006110b784828501610f8f565b91505092915050565b6000602082840312156110d257600080fd5b600082013567ffffffffffffffff8111156110ec57600080fd5b6110f884828501610fa4565b91505092915050565b60006020828403121561111357600080fd5b600061112184828501610fce565b91505092915050565b6111338161156a565b82525050565b6111428161157c565b82525050565b6000611153826114b9565b61115d81856114c4565b935061116d8185602086016115ed565b61117681611710565b840191505092915050565b600061118c826114b9565b61119681856114d5565b93506111a68185602086016115ed565b80840191505092915050565b60006111bf602b836114c4565b91506111ca82611721565b604082019050919050565b60006111e26019836114c4565b91506111ed82611770565b602082019050919050565b60006112056018836114c4565b915061121082611799565b602082019050919050565b60006112286020836114c4565b9150611233826117c2565b602082019050919050565b600061124b6021836114c4565b9150611256826117eb565b604082019050919050565b600061126e6034836114c4565b91506112798261183a565b604082019050919050565b6000611291601d836114c4565b915061129c82611889565b602082019050919050565b60006112b46014836114c4565b91506112bf826118b2565b602082019050919050565b6112d3816115d4565b82525050565b60006112e58284611181565b915081905092915050565b6000602082019050611305600083018461112a565b92915050565b60006020820190506113206000830184611139565b92915050565b600060208201905081810360008301526113408184611148565b905092915050565b60006020820190508181036000830152611361816111b2565b9050919050565b60006020820190508181036000830152611381816111d5565b9050919050565b600060208201905081810360008301526113a1816111f8565b9050919050565b600060208201905081810360008301526113c18161121b565b9050919050565b600060208201905081810360008301526113e18161123e565b9050919050565b6000602082019050818103600083015261140181611261565b9050919050565b6000602082019050818103600083015261142181611284565b9050919050565b60006020820190508181036000830152611441816112a7565b9050919050565b600060208201905061145d60008301846112ca565b92915050565b600061146d61147e565b90506114798282611652565b919050565b6000604051905090565b600067ffffffffffffffff8211156114a3576114a26116e1565b5b6114ac82611710565b9050602081019050919050565b600081519050919050565b600082825260208201905092915050565b600081905092915050565b60006114eb826115d4565b91506114f6836115d4565b9250827fffffffffffffffffffffffffffffffffffffffffffffffffffffffffffffffff0382111561152b5761152a611683565b5b828201905092915050565b6000611541826115d4565b915061154c836115d4565b92508282101561155f5761155e611683565b5b828203905092915050565b6000611575826115b4565b9050919050565b60008115159050919050565b60007fffffffff0000000000000000000000000000000000000000000000000000000082169050919050565b600073ffffffffffffffffffffffffffffffffffffffff82169050919050565b6000819050919050565b82818337600083830152505050565b60005b8381101561160b5780820151818401526020810190506115f0565b8381111561161a576000848401525b50505050565b6000600282049050600182168061163857607f821691505b6020821081141561164c5761164b6116b2565b5b50919050565b61165b82611710565b810181811067ffffffffffffffff8211171561167a576116796116e1565b5b80604052505050565b7f4e487b7100000000000000000000000000000000000000000000000000000000600052601160045260246000fd5b7f4e487b7100000000000000000000000000000000000000000000000000000000600052602260045260246000fd5b7f4e487b7100000000000000000000000000000000000000000000000000000000600052604160045260246000fd5b6000601f19601f8301169050919050565b7f4572726f72202d20455243373231205472616e7366657220746f20746865207a60008201527f65726f2061646472657373000000000000000000000000000000000000000000602082015250565b7f474c4f42414c20494e444558204f5554204f4620424f554e4400000000000000600082015250565b7f4f574e455220494e444558204f5554204f4620424f554e440000000000000000600082015250565b7f455243373231203a204d494e54494e4720544f205a45524f2041444452455353600082015250565b7f4572726f72202d204b727970746f4269726420616c726561647920657869737460008201527f7300000000000000000000000000000000000000000000000000000000000000602082015250565b7f547279696e6720746f207472616e73666572206120746f6b656e20746865206160008201527f64647265737320646f6573206e6f74206f776e21000000000000000000000000602082015250565b7f455243373231203a20544f4b454e20414c5245414459204d494e544544000000600082015250565b7f746f6b656e20646f6573206e6f74206578697374000000000000000000000000600082015250565b6118e48161156a565b81146118ef57600080fd5b50565b6118fb81611588565b811461190657600080fd5b50565b611912816115d4565b811461191d57600080fd5b5056fea2646970667358221220b73c753d4fabbfea07df2a81775820ff5ba61250e11185ea69aee1cb2289223e64736f6c63430008040033",
  "immutableReferences": {},
  "source": "// SPDX-License-Identifier: MIT\r\npragma solidity ^0.8.0;\r\n\r\nimport './ERC721Connector.sol';\r\n\r\ncontract KryptoBird is ERC721Connector{\r\n\r\n\r\n    //array to store NFTs\r\n    string[] public KryptoBirdz;\r\n\r\n    //to check whether the kryptobird exists\r\n    mapping(string => bool) _kryptoBirdzExists;\r\n\r\n\r\n    //we will pass the http value of ipfs in this function\r\n    function mint(string memory _kryptoBird) public {\r\n\r\n        require(!_kryptoBirdzExists[_kryptoBird], 'Error - KryptoBird already exists');\r\n        KryptoBirdz.push(_kryptoBird);\r\n        uint _id = KryptoBirdz.length - 1;\r\n\r\n        _mint(msg.sender , _id);\r\n\r\n        _kryptoBirdzExists[_kryptoBird] = true;\r\n    }\r\n    \r\n    constructor() ERC721Connector('Kryptobirdz','KBIRDZ'){\r\n        \r\n    }\r\n\r\n    \r\n}",
  "sourcePath": "C:/Users/ACER/Desktop/Projects/Blockchain_Projects/Kryptokitties/nft-marketplace-starter-kit/src/contracts/KryptoBirdz.sol",
  "compiler": {
    "name": "solc",
    "version": "0.8.4+commit.c7e474f2.Emscripten.clang"
  },
  "schemaVersion": "3.4.1",
  "updatedAt": "2022-01-14T10:26:24.697Z",
  "networkType": "ethereum",
  "devdoc": {
    "kind": "dev",
    "methods": {
      "supportsInterface(bytes4)": {
        "details": "Interface identification is specified in ERC-165. This function  uses less than 30,000 gas.",
        "params": {
          "interfaceID": "The interface identifier, as specified in ERC-165"
        },
        "returns": {
          "_0": "`true` if the contract implements `interfaceID` and  `interfaceID` is not 0xffffffff, `false` otherwise"
        }
      }
    },
    "version": 1
  },
  "userdoc": {
    "kind": "user",
    "methods": {
      "supportsInterface(bytes4)": {
        "notice": "Query if a contract implements an interface"
      }
    },
    "version": 1
  }
}