{
  "contractName": "Marketplace",
  "abi": [
    {
      "anonymous": false,
      "inputs": [
        {
          "indexed": false,
          "internalType": "uint256",
          "name": "fileId",
          "type": "uint256"
        },
        {
          "indexed": false,
          "internalType": "string",
          "name": "fileHash",
          "type": "string"
        },
        {
          "indexed": false,
          "internalType": "uint256",
          "name": "fileSize",
          "type": "uint256"
        },
        {
          "indexed": false,
          "internalType": "string",
          "name": "fileType",
          "type": "string"
        },
        {
          "indexed": false,
          "internalType": "string",
          "name": "fileName",
          "type": "string"
        },
        {
          "indexed": false,
          "internalType": "string",
          "name": "fileDescription",
          "type": "string"
        },
        {
          "indexed": false,
          "internalType": "uint256",
          "name": "uploadTime",
          "type": "uint256"
        },
        {
          "indexed": false,
          "internalType": "address payable",
          "name": "uploader",
          "type": "address"
        }
      ],
      "name": "FileUploaded",
      "type": "event"
    },
    {
      "inputs": [],
      "name": "fileCount",
      "outputs": [
        {
          "internalType": "uint256",
          "name": "",
          "type": "uint256"
        }
      ],
      "stateMutability": "view",
      "type": "function",
      "constant": true
    },
    {
      "inputs": [
        {
          "internalType": "uint256",
          "name": "",
          "type": "uint256"
        }
      ],
      "name": "files",
      "outputs": [
        {
          "internalType": "uint256",
          "name": "fileId",
          "type": "uint256"
        },
        {
          "internalType": "string",
          "name": "fileHash",
          "type": "string"
        },
        {
          "internalType": "uint256",
          "name": "fileSize",
          "type": "uint256"
        },
        {
          "internalType": "string",
          "name": "fileType",
          "type": "string"
        },
        {
          "internalType": "string",
          "name": "fileName",
          "type": "string"
        },
        {
          "internalType": "string",
          "name": "fileDescription",
          "type": "string"
        },
        {
          "internalType": "uint256",
          "name": "uploadTime",
          "type": "uint256"
        },
        {
          "internalType": "address payable",
          "name": "uploader",
          "type": "address"
        }
      ],
      "stateMutability": "view",
      "type": "function",
      "constant": true
    },
    {
      "inputs": [
        {
          "internalType": "uint256",
          "name": "",
          "type": "uint256"
        }
      ],
      "name": "filesArray",
      "outputs": [
        {
          "internalType": "uint256",
          "name": "",
          "type": "uint256"
        }
      ],
      "stateMutability": "view",
      "type": "function",
      "constant": true
    },
    {
      "inputs": [],
      "name": "name",
      "outputs": [
        {
          "internalType": "string",
          "name": "",
          "type": "string"
        }
      ],
      "stateMutability": "view",
      "type": "function",
      "constant": true
    },
    {
      "inputs": [
        {
          "internalType": "string",
          "name": "_fileHash",
          "type": "string"
        },
        {
          "internalType": "uint256",
          "name": "_fileSize",
          "type": "uint256"
        },
        {
          "internalType": "string",
          "name": "_fileType",
          "type": "string"
        },
        {
          "internalType": "string",
          "name": "_fileName",
          "type": "string"
        },
        {
          "internalType": "string",
          "name": "_fileDescription",
          "type": "string"
        }
      ],
      "name": "uploadFile",
      "outputs": [],
      "stateMutability": "nonpayable",
      "type": "function"
    }
  ],
  "bytecode": "0x60806040526040518060400160405280600b81526020017f4d61726b6574706c61636500000000000000000000000000000000000000000081525060009080519060200190620000519291906200006b565b5060006001553480156200006457600080fd5b5062000180565b82805462000079906200011b565b90600052602060002090601f0160209004810192826200009d5760008555620000e9565b82601f10620000b857805160ff1916838001178555620000e9565b82800160010185558215620000e9579182015b82811115620000e8578251825591602001919060010190620000cb565b5b509050620000f89190620000fc565b5090565b5b8082111562000117576000816000905550600101620000fd565b5090565b600060028204905060018216806200013457607f821691505b602082108114156200014b576200014a62000151565b5b50919050565b7f4e487b7100000000000000000000000000000000000000000000000000000000600052602260045260246000fd5b610c7580620001906000396000f3fe608060405234801561001057600080fd5b50600436106100575760003560e01c806306fdde031461005c5780631d888bee1461007a57806343953519146100aa578063e82d9d33146100c8578063f4c714b4146100e4575b600080fd5b61006461011b565b6040516100719190610917565b60405180910390f35b610094600480360381019061008f9190610897565b6101a9565b6040516100a19190610939565b60405180910390f35b6100b26101cd565b6040516100bf9190610939565b60405180910390f35b6100e260048036038101906100dd91906107c0565b6101d3565b005b6100fe60048036038101906100f99190610897565b610418565b604051610112989796959493929190610954565b60405180910390f35b6000805461012890610ade565b80601f016020809104026020016040519081016040528092919081815260200182805461015490610ade565b80156101a15780601f10610176576101008083540402835291602001916101a1565b820191906000526020600020905b81548152906001019060200180831161018457829003601f168201915b505050505081565b600381815481106101b957600080fd5b906000526020600020016000915090505481565b60015481565b60008551116101e157600080fd5b60008351116101ef57600080fd5b60008151116101fd57600080fd5b600082511161020b57600080fd5b600073ffffffffffffffffffffffffffffffffffffffff163373ffffffffffffffffffffffffffffffffffffffff16141561024557600080fd5b6000841161025257600080fd5b6001600081548092919061026590610b41565b919050555060405180610100016040528060015481526020018681526020018581526020018481526020018381526020018281526020014281526020013373ffffffffffffffffffffffffffffffffffffffff168152506002600060015481526020019081526020016000206000820151816000015560208201518160010190805190602001906102f79291906106a0565b5060408201518160020155606082015181600301908051906020019061031e9291906106a0565b50608082015181600401908051906020019061033b9291906106a0565b5060a08201518160050190805190602001906103589291906106a0565b5060c0820151816006015560e08201518160070160006101000a81548173ffffffffffffffffffffffffffffffffffffffff021916908373ffffffffffffffffffffffffffffffffffffffff16021790555090505060036001816001815401808255809150500390600052602060002050507f6e95bbaa37a5fdec42a312e049dea2fe6160ebe659214d3409b4f91f164c2f5260015486868686864233604051610409989796959493929190610954565b60405180910390a15050505050565b600260205280600052604060002060009150905080600001549080600101805461044190610ade565b80601f016020809104026020016040519081016040528092919081815260200182805461046d90610ade565b80156104ba5780601f1061048f576101008083540402835291602001916104ba565b820191906000526020600020905b81548152906001019060200180831161049d57829003601f168201915b5050505050908060020154908060030180546104d590610ade565b80601f016020809104026020016040519081016040528092919081815260200182805461050190610ade565b801561054e5780601f106105235761010080835404028352916020019161054e565b820191906000526020600020905b81548152906001019060200180831161053157829003601f168201915b50505050509080600401805461056390610ade565b80601f016020809104026020016040519081016040528092919081815260200182805461058f90610ade565b80156105dc5780601f106105b1576101008083540402835291602001916105dc565b820191906000526020600020905b8154815290600101906020018083116105bf57829003601f168201915b5050505050908060050180546105f190610ade565b80601f016020809104026020016040519081016040528092919081815260200182805461061d90610ade565b801561066a5780601f1061063f5761010080835404028352916020019161066a565b820191906000526020600020905b81548152906001019060200180831161064d57829003601f168201915b5050505050908060060154908060070160009054906101000a900473ffffffffffffffffffffffffffffffffffffffff16905088565b8280546106ac90610ade565b90600052602060002090601f0160209004810192826106ce5760008555610715565b82601f106106e757805160ff1916838001178555610715565b82800160010185558215610715579182015b828111156107145782518255916020019190600101906106f9565b5b5090506107229190610726565b5090565b5b8082111561073f576000816000905550600101610727565b5090565b600061075661075184610a13565b6109ee565b90508281526020810184848401111561076e57600080fd5b610779848285610a9c565b509392505050565b600082601f83011261079257600080fd5b81356107a2848260208601610743565b91505092915050565b6000813590506107ba81610c28565b92915050565b600080600080600060a086880312156107d857600080fd5b600086013567ffffffffffffffff8111156107f257600080fd5b6107fe88828901610781565b955050602061080f888289016107ab565b945050604086013567ffffffffffffffff81111561082c57600080fd5b61083888828901610781565b935050606086013567ffffffffffffffff81111561085557600080fd5b61086188828901610781565b925050608086013567ffffffffffffffff81111561087e57600080fd5b61088a88828901610781565b9150509295509295909350565b6000602082840312156108a957600080fd5b60006108b7848285016107ab565b91505092915050565b6108c981610a60565b82525050565b60006108da82610a44565b6108e48185610a4f565b93506108f4818560208601610aab565b6108fd81610c17565b840191505092915050565b61091181610a92565b82525050565b6000602082019050818103600083015261093181846108cf565b905092915050565b600060208201905061094e6000830184610908565b92915050565b60006101008201905061096a600083018b610908565b818103602083015261097c818a6108cf565b905061098b6040830189610908565b818103606083015261099d81886108cf565b905081810360808301526109b181876108cf565b905081810360a08301526109c581866108cf565b90506109d460c0830185610908565b6109e160e08301846108c0565b9998505050505050505050565b60006109f8610a09565b9050610a048282610b10565b919050565b6000604051905090565b600067ffffffffffffffff821115610a2e57610a2d610be8565b5b610a3782610c17565b9050602081019050919050565b600081519050919050565b600082825260208201905092915050565b6000610a6b82610a72565b9050919050565b600073ffffffffffffffffffffffffffffffffffffffff82169050919050565b6000819050919050565b82818337600083830152505050565b60005b83811015610ac9578082015181840152602081019050610aae565b83811115610ad8576000848401525b50505050565b60006002820490506001821680610af657607f821691505b60208210811415610b0a57610b09610bb9565b5b50919050565b610b1982610c17565b810181811067ffffffffffffffff82111715610b3857610b37610be8565b5b80604052505050565b6000610b4c82610a92565b91507fffffffffffffffffffffffffffffffffffffffffffffffffffffffffffffffff821415610b7f57610b7e610b8a565b5b600182019050919050565b7f4e487b7100000000000000000000000000000000000000000000000000000000600052601160045260246000fd5b7f4e487b7100000000000000000000000000000000000000000000000000000000600052602260045260246000fd5b7f4e487b7100000000000000000000000000000000000000000000000000000000600052604160045260246000fd5b6000601f19601f8301169050919050565b610c3181610a92565b8114610c3c57600080fd5b5056fea26469706673582212203faa136510376d77ee7d528dc20d3f1b40a12e0509cc6f16f4cf3fe6b8bfe0e764736f6c63430008040033",
  "immutableReferences": {},
  "source": "// SPDX-License-Identifier: MIT\r\npragma solidity >=0.4.0 <=0.9.0;\r\n\r\ncontract Marketplace {\r\n  string public name = 'Marketplace';\r\n  uint public fileCount = 0;\r\n  mapping(uint => File) public files;\r\n  uint[] public filesArray;\r\n\r\n  struct File {\r\n    uint fileId;\r\n    string fileHash;\r\n    uint fileSize;\r\n    string fileType;\r\n    string fileName;\r\n    string fileDescription;\r\n    uint uploadTime;\r\n    address payable uploader;\r\n  }\r\n\r\n  event FileUploaded(\r\n    uint fileId,\r\n    string fileHash,\r\n    uint fileSize,\r\n    string fileType,\r\n    string fileName, \r\n    string fileDescription,\r\n    uint uploadTime,\r\n    address payable uploader\r\n  );\r\n\r\n\r\n  function uploadFile(string memory _fileHash, uint _fileSize, string memory _fileType, string memory _fileName, string memory _fileDescription) public {\r\n    // Make sure the file hash exists\r\n    require(bytes(_fileHash).length > 0);\r\n    // Make sure file type exists\r\n    require(bytes(_fileType).length > 0);\r\n    // Make sure file description exists\r\n    require(bytes(_fileDescription).length > 0);\r\n    // Make sure file fileName exists\r\n    require(bytes(_fileName).length > 0);\r\n    // Make sure uploader address exists\r\n    require(msg.sender!=address(0));\r\n    // Make sure file size is more than 0\r\n    require(_fileSize>0);\r\n\r\n    // Increment file id\r\n    fileCount ++;\r\n\r\n    // Add File to the contract\r\n    files[fileCount] = File(fileCount, _fileHash, _fileSize, _fileType, _fileName, _fileDescription, block.timestamp, payable(msg.sender));\r\n\r\n    filesArray.push();\r\n    // Trigger an event\r\n    emit FileUploaded(fileCount, _fileHash, _fileSize, _fileType, _fileName, _fileDescription, block.timestamp, payable(msg.sender));\r\n  }\r\n}",
  "sourcePath": "C:/Users/ACER/Desktop/Projects/Blockchain_Projects/Kryptokitties/KryptoBirdz/src/contracts/Marketplace.sol",
  "compiler": {
    "name": "solc",
    "version": "0.8.4+commit.c7e474f2.Emscripten.clang"
  },
  "schemaVersion": "3.4.1",
  "updatedAt": "2022-01-16T11:30:40.726Z",
  "networkType": "ethereum",
  "devdoc": {
    "kind": "dev",
    "methods": {},
    "version": 1
  },
  "userdoc": {
    "kind": "user",
    "methods": {},
    "version": 1
  }
}